{
  "contractName": "FoodSafe",
  "abi": [
    {
      "constant": false,
      "inputs": [
        {
          "name": "LocationId",
          "type": "uint256"
        },
        {
          "name": "Name",
          "type": "string"
        },
        {
          "name": "Secret",
          "type": "string"
        }
      ],
      "name": "AddNewLocation",
      "outputs": [],
      "payable": false,
      "stateMutability": "nonpayable",
      "type": "function"
    },
    {
      "constant": false,
      "inputs": [],
      "name": "GetTrailCount",
      "outputs": [
        {
          "name": "",
          "type": "uint8"
        }
      ],
      "payable": false,
      "stateMutability": "nonpayable",
      "type": "function"
    },
    {
      "constant": false,
      "inputs": [
        {
          "name": "TrailNo",
          "type": "uint8"
        }
      ],
      "name": "GetLocation",
      "outputs": [
        {
          "name": "",
          "type": "string"
        },
        {
          "name": "",
          "type": "uint256"
        },
        {
          "name": "",
          "type": "uint256"
        },
        {
          "name": "",
          "type": "uint256"
        },
        {
          "name": "",
          "type": "string"
        }
      ],
      "payable": false,
      "stateMutability": "nonpayable",
      "type": "function"
    }
  ],
  "bytecode": "0x60606040526000600160006101000a81548160ff021916908360ff160217905550341561002b57600080fd5b6106a58061003a6000396000f300606060405260043610610057576000357c0100000000000000000000000000000000000000000000000000000000900463ffffffff168063988bbca31461005c578063bbe42af814610105578063e3fd1ec214610134575b600080fd5b341561006757600080fd5b610103600480803590602001909190803590602001908201803590602001908080601f0160208091040260200160405190810160405280939291908181526020018383808284378201915050505050509190803590602001908201803590602001908080601f01602080910402602001604051908101604052809392919081815260200183838082843782019150505050505091905050610254565b005b341561011057600080fd5b61011861037e565b604051808260ff1660ff16815260200191505060405180910390f35b341561013f57600080fd5b610158600480803560ff16906020019091905050610395565b604051808060200186815260200185815260200184815260200180602001838103835288818151815260200191508051906020019080838360005b838110156101ae578082015181840152602081019050610193565b50505050905090810190601f1680156101db5780820380516001836020036101000a031916815260200191505b50838103825284818151815260200191508051906020019080838360005b838110156102145780820151818401526020810190506101f9565b50505050905090810190601f1680156102415780820380516001836020036101000a031916815260200191505b5097505050505050505060405180910390f35b61025c610570565b828160000181905250838160200181815250508181608001819052506000600160009054906101000a900460ff1660ff161415156102c657600080600160009054906101000a900460ff1660ff168152602001908152602001600020600101548160400181815250505b80600080600160009054906101000a900460ff1660ff16815260200190815260200160002060008201518160000190805190602001906103079291906105ac565b5060208201518160010155604082015181600201556060820151816003015560808201518160040190805190602001906103429291906105ac565b509050506001600081819054906101000a900460ff168092919060010191906101000a81548160ff021916908360ff1602179055505050505050565b6000600160009054906101000a900460ff16905090565b61039d61062c565b60008060006103aa61062c565b6000808760ff1681526020019081526020016000206000016000808860ff168152602001908152602001600020600101546000808960ff168152602001908152602001600020600201546000808a60ff168152602001908152602001600020600301546000808b60ff168152602001908152602001600020600401848054600181600116156101000203166002900480601f0160208091040260200160405190810160405280929190818152602001828054600181600116156101000203166002900480156104ba5780601f1061048f576101008083540402835291602001916104ba565b820191906000526020600020905b81548152906001019060200180831161049d57829003601f168201915b50505050509450808054600181600116156101000203166002900480601f0160208091040260200160405190810160405280929190818152602001828054600181600116156101000203166002900480156105565780601f1061052b57610100808354040283529160200191610556565b820191906000526020600020905b81548152906001019060200180831161053957829003601f168201915b505050505090509450945094509450945091939590929450565b60a060405190810160405280610584610640565b81526020016000815260200160008152602001600081526020016105a6610640565b81525090565b828054600181600116156101000203166002900490600052602060002090601f016020900481019282601f106105ed57805160ff191683800117855561061b565b8280016001018555821561061b579182015b8281111561061a5782518255916020019190600101906105ff565b5b5090506106289190610654565b5090565b602060405190810160405280600081525090565b602060405190810160405280600081525090565b61067691905b8082111561067257600081600090555060010161065a565b5090565b905600a165627a7a72305820a9d4f295d513b90ff0bbbb0d009fb772b6ec9d89b5dd00b020c43179cc2ddb650029",
  "source": "pragma solidity ^0.4.21;\r\n\r\ncontract FoodSafe\r\n{\r\n    struct Location{\r\n        string Name;\r\n        uint LocationId;\r\n        uint PreviousLocationId;\r\n        uint Timestamp;\r\n        string Secret;\r\n    }\r\n    \r\n    mapping(uint => Location) Trail;\r\n\r\n    uint8 TrailCount = 0;\r\n    function AddNewLocation(uint LocationId, string Name, string Secret) public{\r\n        Location memory newLocation;\r\n        newLocation.Name = Name;\r\n        newLocation.LocationId = LocationId;\r\n        newLocation.Secret = Secret;\r\n\r\n        if(TrailCount!=0){\r\n            newLocation.PreviousLocationId = Trail[TrailCount].LocationId;\r\n        }\r\n        Trail[TrailCount] = newLocation;\r\n        TrailCount++;\r\n    }\r\n    function GetTrailCount() public returns(uint8){\r\n        return TrailCount;\r\n    }\r\n\r\n    function GetLocation(uint8 TrailNo) public returns (string,uint,uint,uint,string){\r\n        return (Trail[TrailNo].Name, Trail[TrailNo].LocationId, Trail[TrailNo].PreviousLocationId, Trail[TrailNo].Timestamp, Trail[TrailNo].Secret);\r\n    } \r\n}",
  "sourcePath": "C:\\Users\\PrimeIT\\demo\\foodsafe\\contracts\\FoodSafe.sol",
  "compiler": {
    "name": "solc",
    "version": "0.4.21+commit.dfe3193c.Emscripten.clang"
  },
  "schemaVersion": "2.0.0",
  "updatedAt": "2018-04-03T11:09:21.694Z"
}