{
  "contractName": "ScoreStore",
  "abi": [
    {
      "constant": false,
      "inputs": [
        {
          "name": "name",
          "type": "string"
        },
        {
          "name": "startingScore",
          "type": "int256"
        }
      ],
      "name": "AddPearsonScore",
      "outputs": [],
      "payable": false,
      "stateMutability": "nonpayable",
      "type": "function"
    },
    {
      "constant": false,
      "inputs": [
        {
          "name": "name",
          "type": "string"
        }
      ],
      "name": "GetScore",
      "outputs": [
        {
          "name": "",
          "type": "int256"
        }
      ],
      "payable": false,
      "stateMutability": "nonpayable",
      "type": "function"
    }
  ],
  "bytecode": "0x6060604052341561000f57600080fd5b6102b48061001e6000396000f30060606040526004361061004c576000357c0100000000000000000000000000000000000000000000000000000000900463ffffffff168063308d19641461005157806335512597146100c2575b600080fd5b341561005c57600080fd5b6100ac600480803590602001908201803590602001908080601f01602080910402602001604051908101604052809392919081815260200183838082843782019150505050505091905050610128565b6040518082815260200191505060405180910390f35b34156100cd57600080fd5b610126600480803590602001908201803590602001908080601f0160208091040260200160405190810160405280939291908181526020018383808284378201915050505050509190803590602001909190505061019c565b005b600080826040518082805190602001908083835b602083101515610161578051825260208201915060208101905060208303925061013c565b6001836020036101000a0380198251168184511680821785525050505050509050019150509081526020016040518091039020549050919050565b600080836040518082805190602001908083835b6020831015156101d557805182526020820191506020810190506020830392506101b0565b6001836020036101000a038019825116818451168082178552505050505050905001915050908152602001604051809103902054131561021457600080fd5b806000836040518082805190602001908083835b60208310151561024d5780518252602082019150602081019050602083039250610228565b6001836020036101000a03801982511681845116808217855250505050505090500191505090815260200160405180910390208190555050505600a165627a7a723058201f6b5ee12029bab12ad3200af52a329bd4434b06bc1c75d60c9ac81c9a9ef4640029",
  "source": "pragma solidity ^0.4.21;\r\n\r\ncontract ScoreStore\r\n{\r\n    mapping (string => int) PearsonScores;\r\n    function AddPearsonScore(string name, int startingScore) public{\r\n        if (PearsonScores[name]>0) {\r\n            revert();\r\n        } else {\r\n            PearsonScores[name] = startingScore;\r\n        }       \r\n    }\r\n\r\n    function GetScore(string name) public returns (int){\r\n        return PearsonScores[name];\r\n    }\r\n\r\n}",
  "sourcePath": "C:\\Users\\PrimeIT\\demo\\scorestore\\contracts\\ScoreStore.sol",
  "compiler": {
    "name": "solc",
    "version": "0.4.21+commit.dfe3193c.Emscripten.clang"
  },
  "schemaVersion": "2.0.0",
  "updatedAt": "2018-04-02T14:08:18.491Z"
}